:100000000C9446000C9465000C9465000C946500FB
:100010000C9465000C9465000C9465000C946500CC
:100020000C9465000C9465000C9465000C946500BC
:100030000C9465000C9465000C9465000C946500AC
:100040000C9465000C9465000C9465000C9465009C
:100050000C9465000C9465000C9465000C9465008C
:100060000C9465000C9465000C9465000C9465007C
:100070000C9465000C9465000C9465000C9465006C
:100080000C9465000C9465000C94650011241FBE4F
:10009000CFEFD0E4DEBFCDBF11E0A0E0B1E0E2E100
:1000A000F3E000E00BBF02C007900D92A031B10752
:1000B000D9F721E0A0E1B1E001C01D92A331B20760
:1000C000E1F70E946C010C9487010C940000CF931F
:1000D000DF9300D01F92CDB7DEB789837B836A831D
:1000E00089818A3031F48A819B81BC018DE00E9434
:1000F000670080EC90E0FC018081882F90E08072A6
:100100009927892BB1F386EC90E02981FC012083AB
:1001100080E090E00F900F900F90DF91CF910895C5
:10012000CF93DF93CDB7DEB78AE790E02AE730E0E0
:10013000F9012081206EFC0120830000DF91CF9126
:100140000895CF93DF93CDB7DEB788E790E0FC0149
:100150008081918190931201809311018FE492E04C
:100160009C01369527953695279536952795C90193
:10017000880F991F880F991F880F991FAC01421B88
:10018000530B9A01809111019091120182179307EC
:1001900020F08FEF8093100195C08FE492E09C01D6
:1001A000369527953695279536952795C901880F59
:1001B000991F820F931F880F991F9C018091110135
:1001C000909112018217930720F08FE7809310011E
:1001D00079C08FE492E09C01369527953695279556
:1001E00036952795C901880F991F880F991F280FE9
:1001F000391F80911101909112018217930720F00D
:100200008FE3809310015EC08FE492E0969587950E
:1002100096958795969587959C01220F331F220FFF
:10022000331F80911101909112018217930720F0E2
:100230008FE18093100146C08FE492E09C013695D7
:1002400027953695279536952795C901880F991FCB
:10025000280F391F80911101909112018217930785
:1002600020F08FE0809310012DC08FE492E09695EE
:10027000879596958795969587959C01220F331FB4
:1002800080911101909112018217930720F087E06D
:100290008093100117C08FE492E09C01369527955A
:1002A00036952795369527958091110190911201E9
:1002B0008217930720F083E08093100103C081E050
:1002C0008093100185E290E020911001FC012083D1
:1002D0000000DF91CF910895CF93DF93CDB7DEB7C4
:1002E00081E290E0FC01108282E290E02FEFFC01BD
:1002F000208384E290E02FEFFC01208385E290E0F0
:10030000FC0110820E9490000E94A100FDCFF89491
:02031000FFCF1D
:1003120000000002000000006700000000004F0221
:00000001FF
