:100000000C9446000C9465000C9465000C946500FB
:100010000C9465000C9465000C9465000C946500CC
:100020000C9465000C9465000C9465000C946500BC
:100030000C9465000C9465000C9465000C946500AC
:100040000C9465000C9465000C9465000C9465009C
:100050000C9465000C9465000C9465000C9465008C
:100060000C9465000C9465000C9465000C9465007C
:100070000C9465000C9465000C9465000C9465006C
:100080000C9465000C9465000C94650011241FBE4F
:10009000CFEFD0E4DEBFCDBF11E0A0E0B1E0E4EEF1
:1000A000F1E000E00BBF02C007900D92AE30B10747
:1000B000D9F721E0AEE0B1E001C01D92A231B20754
:1000C000E1F70E94CC000C94F0000C940000CF9358
:1000D000DF9300D01F92CDB7DEB789837B836A831D
:1000E00089818A3031F48A819B81BC018DE00E9434
:1000F000670080EC90E0FC018081882F90E08072A6
:100100009927892BB1F386EC90E02981FC012083AB
:1001100080E090E00F900F900F90DF91CF910895C5
:10012000CF93DF93CDB7DEB78AE790E02AE730E0E0
:10013000F9012081206EFC0120830000DF91CF9126
:100140000895CF93DF93CDB7DEB788E790E0FC0149
:10015000808191819093100180930F0180910F0114
:100160009091100180930E0180910F0190911001E8
:10017000892F99278093110185E290E020910E014B
:10018000FC0120838BE290E020911101FC0120838F
:100190000000DF91CF910895CF93DF93CDB7DEB705
:1001A00081E290E0FC01108282E290E02FEFFC01FE
:1001B000208384E290E02FEFFC01208385E290E031
:1001C000FC0110828AE290E02FEFFC0120838BE299
:1001D00090E0FC0110820E9490000E94A100FDCFDF
:0401E000F894FFCFC1
:0E01E4000000000200000000670000000000A4
:00000001FF
